:020000040800F2
:10000000401B0020190200082F3400082F3200087E
:100010002D3400087F140008D550000800000000AF
:10002000000000000000000000000000B7390008D8
:10003000FD15000800000000B5390008B9390008B6
:1000400033020008330200083302000833020008BC
:1000500033020008330200083302000833020008AC
:10006000330200083302000833020008330200089C
:10007000330200083302000833020008330200088C
:10008000330200083302000833020008330200087C
:100090006D500008330200083302000833020008E4
:1000A000330200083302000833020008330200085C
:1000B000330200081D3A000833020008330200082A
:1000C000330200083302000833020008330200083C
:1000D000330200083302000833020008330200082C
:1000E00033020008330200083302000800F002F86F
:1000F00000F083F814A696E8000CB244B344DA4545
:1001000001D100F07AF8BAE80F000FA696E83000A7
:10011000A5EB040504EB0607AAEB0704A7F101070A
:100120004FEA15154FEA3414A4F10104AC4201D38F
:1001300000F063F813F0010F18BFFB1A43F001033E
:1001400000F001F8DBE71847EC6800000C690000DC
:100150000A444FF0000C10F8013B13F0070408BFED
:1001600010F8014B1D1108BF10F8015B641E05D08B
:1001700010F8016B641E01F8016BF9D113F0080F40
:100180001EBF10F8014BAD1C0C1B09D16D1E58BFD2
:1001900001F801CBFAD505E014F8016B01F8016B09
:1001A0006D1EF9D59142D6D370470000704700000C
:1001B0000023002400250026103A28BF78C1FBD870
:1001C000520728BF30C148BF0B607047642900F058
:1001D0008B80002070471FB500F0C2FB0400002098
:1001E000002105F089FE401C60600020002105F020
:1001F0006DFEE0601FBD10B510BD00F08BFB114619
:10020000FFF7E9FF04F0D4FF00F038FE03B4FFF776
:10021000F2FF03BC01F02CF9094880470948004768
:10022000FEE7FEE7FEE7FEE7FEE7FEE7FEE7FEE7A6
:10023000FEE7FEE704480549054A064B7047000003
:100240001B3A0008ED00000840150020401B00206C
:1002500040170020401700200FB41CB5074B06AA1A
:100260007B4469460090059800F0B5F90020694686
:1002700000F0C4F91CBC5DF814FB000099030000F9
:100280002DE9F0410E460446002020622046E16838
:10029000884730B3252805D0D4E901219047206A4A
:1002A000401CF2E7E168204600278847050018D087
:1002B000A5F14100192802D820354FF400673246D5
:1002C000294620462760FFF781FF40B1012804D06E
:1002D000F61D26F007060836D8E7361DD6E728466D
:1002E000DAE7206ABDE8F0812DE9F04106460024F6
:1002F00010687529314616A510D0AFF3008000288C
:1003000002DA404213A507E031688A0701D512A539
:1003100002E0490704D511A5012401E0AFF30080F4
:1003200000210A2206F1240709E0B0FBF2FCB0FB31
:10033000F2F302FB1C00303078541846491C0028A8
:10034000F3D123462A463046BDE8F04100F0E5B837
:10035000000000002D0000002B0000002000000025
:1003600070B5064600F0CAF80468054630460A2211
:10037000002100F0A1F92C6070BD0000014A00F0DE
:10038000D3B900000000002040EA010310B59B072C
:100390000FD1042A0DD310C808C9121F9C42F8D0EF
:1003A00020BA19BA884201D9012010BD4FF0FF30A0
:1003B00010BD1AB1D30703D0521C07E0002010BDB6
:1003C00010F8013B11F8014B1B1B07D110F8013B42
:1003D00011F8014B1B1B01D1921EF1D1184610BD23
:1003E00010B5431C02E010F8011B71B18107FAD16E
:1003F0004FF0013202C88C1A8C4314EAC211F9D0B2
:10040000C01A0A0603D0C01E10BDC01A10BD0A04CF
:1004100001D0801E10BD0902FCD0401E10BD032A71
:1004200040F2308010F0030C00F0158011F8013B11
:10043000BCF1020F624498BF11F801CB00F8013BF8
:1004400038BF11F8013BA2F1040298BF00F801CBBC
:1004500038BF00F8013B11F0030300F08781083A30
:10046000C0F0088051F8043B083A51F804CBA0E8EA
:100470000810F5E7121D5CBF51F8043B40F8043B3F
:10048000AFF30080D20724BF11F8013B11F801CB74
:1004900048BF11F8012B24BF00F8013B00F801CB45
:1004A00048BF00F8012B70474FF0000200B513461B
:1004B00094469646203922BFA0E80C50A0E80C5084
:1004C000B1F12001BFF4F7AF090728BFA0E80C5035
:1004D00048BF0CC05DF804EB890028BF40F8042B2E
:1004E00008BF704748BF20F8022B11F0804F18BF9B
:1004F00000F8012B704770477047704700487047FD
:100500009001002010B5FFF7F9FF006810BD10B58D
:100510000446FFF7F3FF046010BD2DE9F0470D46D8
:1005200099469246044600F124080168880604D5DD
:10053000E06921F01001216000E00120A84201DD06
:10054000471B00E00027A1697A1902EB0900081A8D
:10055000A0612078C00602D42046AFF300800026B8
:1005600008E0D4E901211AF806009047206A401CEF
:10057000761C20624E45F4DB2078C0060AD5204662
:10058000AFF3008006E0D4E9012130209047206AD3
:10059000401C2062381EA7F10107F4DC07E0D4E913
:1005A000012118F805009047206A401C2062281E8F
:1005B000A5F10105F3DC2046AFF3008020780006AA
:1005C00002D50220BDE8F0870120FBE701694A1C43
:1005D00002610878704700B58FB0CDE90131002184
:1005E000059105497944CDE9031011466846FFF7A6
:1005F00047FE0FB000BD0000E5FFFFFF0A6802F8EC
:10060000010B0A60704700000FB40B0010B54FF0EB
:1006100000048AB00FA900910E99CC60234C7C4451
:10062000234A7A44CDE9064200D004236FF0004209
:10063000CDE901321F4A7A446B46089202460020F7
:1006400006F080F90AB010BC5DF814FBF0B507465F
:100650004FF0FF301E4615460C463B4685B06A46B5
:100660000091CDE9010131460020049004A8FFF774
:10067000CBFF04990346601825B109B1024600E09A
:1006800022462A6000290ED0002B02DD009981420B
:1006900009D03B466A463146001B0094CDE901046F
:1006A00004A8FFF7B1FF05B0F0BD0000D9010000BC
:1006B000F3010000AF0100002DE9F04791460F461D
:1006C00080460446002614F8015B2DB100F084F842
:1006D0000068405DC007F6D12B2D02D02D2D18D01B
:1006E000641E4A463946204600F0A7F827B139680B
:1006F000A14201D1C7F800804FF0020471050BD56B
:100700004042002803DDFFF7F9FE0460A007BDE8C2
:10071000F08746F48066E4E70028F8DAFFF7EEFE9B
:1007200004606FF00040F2E72DE9F04115460E46F7
:10073000040002D12C6804B90BA4204600F0DCF8B8
:100740000444207870B127463146384600F0C4F89A
:100750000444207810B1002004F8010B38462C60C6
:10076000BDE8F0810027F9E70000000010B5203A4D
:10077000C0F00B80B1E81850A0E81850B1E818504C
:10078000A0E81850203ABFF4F5AF5FEA027C24BF1E
:10079000B1E81850A0E8185044BF18C918C0BDE807
:1007A00010405FEA827C24BF51F8043B40F8043BD0
:1007B00008BF7047D20728BF31F8023B48BF11F885
:1007C000012B28BF20F8023B48BF00F8012B7047DF
:1007D000004870479001002010B500F0C1F8001DDE
:1007E00010BD00BF1557000010B50446FFF7F4FF19
:1007F0000068005D00F0010010BD426842B1016870
:1008000011F8013B23B1521EC0E90012184670478F
:100810000121C160881E704742685AB1C3680168EF
:1008200043B983688B4205D0491E521CC0E90012AF
:10083000002070474FF0FF3070472DE9F05F82468F
:1008400015468B4600270AF10104B9460078302886
:1008500001D09DB113E014F8010B0127782803D0D3
:10086000582801D045B10AE00DB1102D07D100275D
:1008700014F8010B102502E0082500E00A250026E7
:10088000B0460EE005FB080005FB06F101271FFA44
:1008900080F801EB1046B6F5803F00D3B94614F856
:1008A000010B294600F060F80028EBDABBF1000FDD
:1008B00005D00FB1641E00E05446CBF80040B9F1FA
:1008C000000F06D0FFF71AFE02210160C81EBDE826
:1008D000F09F48EA0640FAE730B503461D781DB19F
:1008E0000A4603E0AC4201D1181A30BD12F8014BA0
:1008F000002CF7D15B1CF1E730B503461D783DB104
:100900000A4612F8014B1CB1AC42FAD15B1CF5E768
:10091000181A30BD7546FFF75BFFAE460500694605
:10092000534620F00700854618B020B5FFF782FC3B
:10093000BDE820404FF000064FF000074FF00008E0
:100940004FF0000BAC46ACE8C009ACE8C009ACE81D
:10095000C009ACE8C00921F007018D4670470000CE
:1009600000487047B00100203A2800D2303820F00B
:100970002002412A01D3A2F13700884201D34FF06F
:10098000FF3070472DE9FF4F06468BB00878FF28EF
:1009900006D0491C2D2805D000244FF0000908E09E
:1009A00000200CE00124F8E709EB8903491C00EB67
:1009B00043090878FF28F7D114B1C9F10000814636
:1009C000107800252C46AA4629462D2801D02B2830
:1009D00004D1521C2D2813D0002082468B4610785B
:1009E000FF280FD04FF0000C0A21521CA5FB017804
:1009F00004FB018105FB0C11C5194BEB0104EEE76B
:100A00000120EAE7002108464FF00000BAF1000F8C
:100A100002D000EB80004008C0F38157012F01DDB8
:100A20004FF0FF370E9955EA040009EB01080BD08F
:100A30004FF0020918F5FA7F16DA4FEACA70002F54
:100A4000706008DD012007E04FEACA70C6E900B017
:100A50000FB0BDE8F08F00203060FFF74FFDC0F809
:100A600000901821084616E0B8F5FA7F18DD002F2F
:100A700002DAF748784401E0F6487844D0E90010FB
:100A8000C6E9001040EACA707060FFF737FDC0F891
:100A90000090142108460FB0BDE8F04F05F0EFBEFE
:100AA000002108464FF00000B8F10001099002DA79
:100AB000C7F1000200E03A4601DAC8F1000106A8D9
:100AC00000F03AFA06AB93E8070003AB83E80700AF
:100AD00044F23E005BEA04010090584604D144F21F
:100AE0001E012C465D460091210C0904014306D1EC
:100AF0000099240444EA15442D041039009104F0AF
:100B00007F41014306D10099240244EA15642D0275
:100B10000839009104F07041014306D10099240185
:100B200044EA15742D01091F009104F0404101436E
:100B300006D10099A40044EA9574AD00891E009185
:100B400004F00041084304D100986D196441401E2F
:100B500000904FF001033A466846B8F1000FCDE926
:100B6000014503A902DD04F076FF01E004F049FF2E
:100B7000BAF1000F04460D4601D084F00044002174
:100B800008464FF00000099940F2FF77484010F006
:100B90000C0F07D124F00040284303D0C4F30A50BF
:100BA000B84212D1FFF7AAFCC0F80090C4F30A5073
:100BB000B8420AD1A8487844D0E90010C6E900102C
:100BC00004F000410843706042E7C6E900543FE783
:100BD0002DE9FF4F1F464FF0000A4FF0FF38454602
:100BE00091B0D7E90146CDF83CA0FFF7B9FEC06847
:100BF0000168405C1090B96912986D1C8847396A89
:100C0000814688470028F6D1B9F1FF3F0AD0002E6F
:100C100024F4D06411DDB9F12B0F08D0B9F12D0FF8
:100C20000BD102E0404615B013E744F48064B96983
:100C300012986D1C8847761E8146600504A901D56F
:100C40002D2000E02B20002E01F1010B0DF13008CA
:100C50008DF810003FDDB9F1690F08D0B9F1490FE7
:100C600005D0B9F16E0F02D0B9F14E0F1CD13B4641
:100C700001A8009580E85002DDE912126FF0020031
:100C800005F064FEC11CCED10EE0B96912986D1C4E
:100C9000884781461398761E44F4007405600F98C7
:100CA000401C002E0F9016DDB9F1300FEDD0B9F1D8
:100CB000780F02D0B9F1580F0DD10F9801280AD141
:100CC0003B46CDE90054DDE91212001F029605F003
:100CD0003BFEC11CA7D1109989453ED144F0800448
:100CE00006E01399681CAAF1010A44F40074086034
:100CF000B9696D1C1298761E884730288146F0D05D
:100D00002BE01099894505D1200603D4761E44F0C6
:100D1000800418E0484605F056F808B3761E0DF139
:100D200023029345A9F1300044F4007406D20BF875
:100D3000010B200607D5AAF1010003E0200602D42A
:100D40000AF101008246A00502D51399681C0860CB
:100D5000B96912986D1C88478146002ED1DC53E09A
:100D6000002E51DDB9F1650F02D0B9F1450F4BD11D
:100D7000A00549D5B9696D1C1298761E24F44074FB
:100D80008847002E81460CDD2B2804D0B9F12D0FA9
:100D900007D144F48074B96912986D1C8847761E97
:100DA0008146E00501D52D2100E02B2108F8011B2B
:100DB000CDF8008021E0761E0DF13901884544F41C
:100DC00000740CD2A9F1300010F0FF0088F8000088
:100DD00002D10099884509D908F1010806E0E0052B
:100DE00001D51E4801E042F20F708246B96912989F
:100DF0006D1C8847814613980560002E04DD484627
:100E000004F0E1FF0028D6D1F96912988847FF2045
:100E100053468BF8000088F8000000200A900B90E1
:100E200004AA0CA90AA8FFF7ADFDA00502D46FF033
:100E30000100F8E614F0240F12D0E0071CD1386846
:100E4000DDE90A12031D3B600068C0E9001213E0EF
:100E5000E45F0000D65F00009A5E0000F1D8FFFF5B
:100E60000AA9684604F03EFFE00705D13868009AF9
:100E7000011D3960006802602846D4E610B50446BA
:100E8000AFF300802046BDE81040FFF7BFB9000077
:100E90004FF0013C50F8042B51F8043B9A4221D109
:100EA000A2EB0C03934313EACC1317D150F8042B95
:100EB00051F8043B9A4215D1A2EB0C03934313EA79
:100EC000CC130BD150F8042B51F8043B9A4209D1B2
:100ED000A2EB0C03934313EACC13DBD04FF00000DA
:100EE000704700BFD01A01BAB1FA81F101F01801C0
:100EF00022FA01F0CB40DBB2C0B2C01AC1F120012E
:100F00002CFA01F3D11A914311EAC311E6D17047CB
:100F1000B2F120030AD5C2F1200301FA02F120FA4E
:100F200003F341EA030100FA02F0704700FA03F10B
:100F30004FF00000704700002DE9F047814616464B
:100F40008AB0354878440DC88DE80D0032487844A1
:100F5000801C03AC0DC884E80D0041F69B300844AA
:100F6000372190FBF1F290FBF1F5A5F1800501FB33
:100F700012041B3C02D56442012000E00020DFF88F
:100F800098A080460027FA44AAF1BE0A0EE0E007C6
:100F90000AD03246684607EB470101230AEB81017C
:100FA00004F044FD8DE8070064107F1C002CEED196
:100FB000194F7F44AE3F19E0E80715D007EB041046
:100FC0000DF1180A90E80E008AE80E00C068F042A1
:100FD00001D1981908903246012306A903A804F00C
:100FE00025FD03AB83E807006D10641C002DE3D1E1
:100FF0004FF0010332466946B8F1000F03A802D052
:1010000004F0EAFC01E004F011FDC9E90001C9F8AF
:1010100008200AB0BDE8F087B45A00002DE9FF4F60
:101020001F464FF03C0987B04FF00042DDE9141035
:1010300001F10108DDF858A002EA405003900020B9
:1010400005908346054604460490B969461E0898F3
:101050008847AAF1010A0290BAF1000F3BDD02981D
:101060002E2815D01021FFF77FFC00282EDB4FF033
:10107000010B0599014317D0B9F1000F0BDB4A466C
:10108000C117FFF745FF05430C43A9F1040905E02B
:10109000012004900BE008B145F001050120059006
:1010A000049820B9361D02E0049800B1361FB969D2
:1010B000089808F101088847BBF1000FAAF1010A5E
:1010C0000290C9D00999C1F80080C5E7029870283C
:1010D00008D0502806D0F96908988847BBF1000F5E
:1010E00014D04FE0002002900120BBF1000F0490CB
:1010F00009D0B969089808F101088847AAF10109DF
:10110000B9F1000F07DCF969089888476FF0010012
:101110000BB0BDE8F08F2B2804D02D280CD14FF058
:10112000FF300490B969089808F101088847A9F1CF
:101130000109B9F1000FE6DD411CE4D00A21FFF7F7
:1011400013FC0028DFDB029908F1010801EB8101A3
:1011500000EB41000290B969089888470A21FFF71F
:1011600003FC099AA9F10109B9F1000FC2F8008046
:1011700001DD0028E7DAF9690898884704990298A0
:1011800000FB016655EA040004D004F04041090068
:1011900002D006E0039898E0A40044EA9574AD00FC
:1011A000B61E04F00041080002D16D196441761E9C
:1011B000159810F0240F03D04FF00B095C4803E0A2
:1011C0004FF028096FF07D008246564507DAAAEBFA
:1011D00006018944B9F1410F01DD4FF041090120B9
:1011E0000021A9F10102FFF793FE024628400B46B9
:1011F0002140084301D0012100E00021501E02914E
:1012000043F1FF3128402140084301D0012000E094
:1012100000200299834651EA0B014FD00021084675
:101220004FF00000039900F4400039B100EB80005A
:101230004FF4400100EBD07001EA600080150128F6
:1012400002DD4FF0FF3000E013D0401C36D0029892
:1012500060B3BBF1000F0CD14A4601200021FFF71B
:1012600057FE28402140084301D0012000E0002023
:10127000E0B101204A460021FFF74AFE034640192B
:101280000A4661412D1A8C4111D3B9F1400F09DD95
:10129000159810F0240F02D0AAF1340603E0AAF149
:1012A000170600E0761C00254FF0004406E05B1EA8
:1012B00042F1FF3220EA030521EA0204CAF10100EB
:1012C000B04206DA1B4903980843019000200090C1
:1012D0000EE0039AC4F3D321E80A0A43164940EA10
:1012E00044500A433146CDE90002684604F060FDEF
:1012F000159810F0240F0BD01598C00715D1386839
:10130000DDE90012031D3B600068C0E900120CE03B
:1013100002A8694604F0E6FC1598C00705D13868B4
:10132000029A011D3960006802604046F0E6000044
:1013300002FCFFFF0000F07F0000F03F2DE9FF4FAF
:1013400092461D4685B04FF00041DDE9124BDDE9C4
:1013500014727F1E01EA4B50414940F0FF4940EAB8
:101360000108002122F020004928049102D04E28D3
:1013700028D04CE03BA0012607C88DE80700A969EA
:101380000698641C88477F1E014606D41DF8060097
:1013900018B121F0200181420BD0E96906988847F5
:1013A000032E34D0082E32D06FF0010009B0BDE812
:1013B000F08F761C032E01D0082EE0D1601CCAF8F5
:1013C0000000DCE7A9690698641C88477F1E2AD4C0
:1013D00020F02000412826D1A9690698641C88477E
:1013E0007F1E20D420F020004E281CD1A969069829
:1013F000641C88477F1E48F4002849F48009CAF815
:10140000004001D4282806D0E969069888475FEA99
:10141000CB7012D022E0A9690698641C88477F1E11
:1014200001D4002803DAE96906988847BCE729282F
:10143000F1D1641CCAF80040E9E71BF0240F07D083
:1014400028680499031D2B600068C0E9001805E0B6
:101450002868021D2A600068C0F800902046A5E7B1
:101460000000F07F494E46494E49545900000000A3
:1014700001491820ABBEFEE7260002007047FEE7D8
:10148000002070470020704710B55B4C05490022D2
:10149000204602F0C9FC0449204602F0BFFC0020AF
:1014A00010BD00BF740A00207406002070B590B013
:1014B0003B4E05460C462946304602F0AFFC30460E
:1014C00002F092FC24686E46294630463F2C28BF25
:1014D0003F242246FEF7A3FF002032A1032230550D
:1014E0003046FEF751FFE0B168462FA10322FEF718
:1014F0004BFFC8B368462DA10322FEF745FF002825
:101500003FD02B480099814246D12A4C684601F0D1
:10151000D0FF01F09FFF00283ED0FEF721FF2649B3
:1015200039E0244C684601F0C4FF01F093FF28B174
:1015300004F050FC04F0F6FC224908601D4900202C
:10154000FEF71CFF28B104F045FC04F0EBFC1E493B
:10155000086018490020FEF711FFE8B104F03AFCDA
:1015600004F0E0FC194916E0124C684601F0A1FFB6
:1015700001F070FF80B104F02DFC04F0D3FC1049A1
:1015800009E00C4C684601F094FF01F063FF18B1CC
:10159000FEF7E6FE09490860002010B070BD00BFEC
:1015A000740E0020504944005345540044495200F1
:1015B0004D4F44452C6A000800020020FC01002029
:1015C000F801002004000020080000200C0000208A
:1015D0000A4601460848D0F8B802D0F8140208B10B
:1015E0000120704710B5044C204602F01DFC204637
:1015F000BDE8104002F078BC740E00207047EFF395
:10160000108072B6FEE70000B0B5044600F0F2F8B4
:1016100005460548611C007818BF044400F0EAF84C
:10162000401BA042FAD3B0BD100000202DE9FC4FB2
:101630005D4A04234FF0000A4FF001084FF00F0EEF
:101640004FF00009904208BF0323009300250A6869
:1016500032FA05F408BFBDE8FC8F08FA05F712EA74
:10166000070C00F09D804C68032C16D9112C24D057
:10167000122C30D04F4A944213D04F4A944210D08B
:101680004E4A94420DD04E4A94420AD04D4A94425A
:1016900007D04D4A944204D020E0DFE804F002195C
:1016A00012168C6834B1012C14BF476107614FF0EA
:1016B000080913E04FF0040910E0CC6804F10409B4
:1016C0000CE0CC6804F1080908E04FF0000905E0DF
:1016D000D1F80C9002E0CC6804F10C09544607469E
:1016E000BCF5807F28BF203C28BF04373B680EFA3A
:1016F00004F609FA04F4B34323433B60CB79DB06D9
:101700004ED5F04A136843F0010313601368274A6B
:1017100003F00103A2F57E742C4A0193019B9042D1
:1017200025F0030354F803B00AD0294A904205D0AB
:10173000284A009E904208BF022602E0012600E0EF
:1017400000260AF00C03AA080EFA03F706FA03F3C0
:10175000174E2BEA07073B4344F82230134B4F68E0
:10176000FA029A6854BF22EA0C0442EA0C049C6014
:10177000BA02326854BF22EA0C0442EA0C04346014
:10178000BA035A6854BF22EA0C0442EA0C045C60B3
:10179000FA031A6854BF22EA0C0242EA0C021A60E9
:1017A0000AF1040A013552E7001401400004014027
:1017B0000C04014000001110000012100000211064
:1017C000000022100000311000003210000801401B
:1017D000000C014000100140C26802EA010391437D
:1017E00041EA034101617047002A08BF0904016111
:1017F00070470000B8480068704700BF30B3F8B5C4
:10180000044690F83D0020B901F099FF204600F011
:101810002BF9242084F83D00206801F0EBFE0168DC
:1018200041F400410160016821F40041016001F0D0
:101830002DF86368364A374993423CBF48F28041ED
:10184000C0F21E01884203D20120F8BD012070477A
:1018500031494FF47A77B0FBF1F521684E6826F0F4
:101860003F062E434E604FF496766E43934228BF58
:10187000B6FBF7F56A1C0D6A25F03F052A434CF6C6
:10188000FF750A62CA69AA43244DAB4207D85B00C0
:10189000013801F049FF042898BF042013E0A5682F
:1018A00001383DB119256B4301F03EFF50B100F501
:1018B000804004E003EB430301F036FF10B100F574
:1018C000004000E00120104304F10C06C861E0690B
:1018D0000A6822F0C0021043226A104348F2FF3225
:1018E0000860886890436CCE184310438860C868CD
:1018F00020F0FF0028433043C86001F032FF002091
:101900002021206484F83D10206384F83E00F8BD57
:10191000A186010000093D0040420F00A0860100A1
:101920002DE9FC471F46164689460446FFF762FF2D
:10193000824601F0CCFE0CD14A4D01F04FFFCDF8AC
:1019400000A005F5702101F0AFFC10B901F08DFE8B
:1019500002D10220BDE8FC8701F01DFF01D101F09A
:10196000DEFE0168A5F10212DDF8288001F032FFE9
:10197000212101F017FF6785618DE2626662218592
:10198000E16A11F5803F18BF012919D101F0D9FD95
:1019900020464FF0011100224346CDF800A001F08F
:1019A00083FC38B120680068C00544BF4FF4007064
:1019B000206421E02069B0F5804F07D1FE2013E0BC
:1019C0000829E3D0216B1229E0D0E1E70620216845
:1019D0004246534600EAD910F0300861A91D20465E
:1019E00001F091FC40B9FF20216800EA090042465D
:1019F000534601F0DFFE10B10120BDE8FC87002056
:101A0000019001F0E0FE208D20B320464146524671
:101A100001F0AAFCC0B901F03AFE228D531E2385C5
:101A20004E69760709D51B0407D0437802300B6155
:101A30006062901E208501F026FE204641465246F7
:101A400001F00EFC0028DED0206C0428D4D101F077
:101A500063FDD1E701F060FD01F059FD01F032FEB8
:101A6000BDE8FC870200010010B586B00021CDE979
:101A70000411CDE902110168114881421DD13E4C8B
:101A800000F53840216841F008012160216801F02B
:101A9000080101910321059112210391C0210291B6
:101AA000019902A9FFF7C2FD606840F40010606070
:101AB000606800F400100190019806B010BD00BFEE
:101AC00000540040181002401B48034900780A687F
:101AD00010440860704700BF3C15002080B50748DF
:101AE000016841F010010160032000F07BF80F2035
:101AF00000F006F800F024F8002080BD002002402D
:101B000070B50D4E04464FF47A713078B1FBF0F0A9
:101B10000A490968B1FBF0F001F07AF801250F2CB1
:101B200008D838B94FF0FF3021460022002500F0D8
:101B300033F87460284670BD100000203400002087
:101B400082B00D480222016841F001010160016884
:101B500001F0010101910199416841F0805141601A
:101B6000406800F08050009000980448016862F3DB
:101B70001A61016002B07047181002400400014071
:101B8000002805D4734601F0ABFC9E46014A8850FC
:101B9000704700BF00E100E0F0B5184B4FF0FF3692
:101BA0001C68C4F30224E51E84F0070438BF002536
:101BB00006FA05F7BA43042C28BF042406FA04F4F5
:101BC000A14300F00F04A940043C1143044A2344FC
:101BD00009010244002848BF03F10C021170F0BD56
:101BE00000E400E005494FF6FF030A681A4060F37D
:101BF0000A22034810430860704700BF0CED00E064
:101C00000000FA05B0B501F0070501EB810405EB12
:101C1000850500EBC40400EBC5001030090658BF71
:101C200004F5A87022B103811B0C01210A2201E0F6
:101C300000210622835201730020B0BD704701EBE2
:101C4000810200EBC202D0F8D402526A02F079BAE3
:101C500001EB810200EBC202D0F8D402D2F8642179
:101C600002F0CEBA10B5044648B20A464FF4A87145
:101C7000002848BF1021601802F0070101EB810322
:101C800000F8331000EBC301D009487094F89002BB
:101C9000012804BF022010BD01F058FC02F01AFF19
:101CA00001F00ABCB0B50446007901F00F0282428F
:101CB00001D9012521E048B24FF4A872002848BF9D
:101CC0001022A01801F00702002502EB820300F8A1
:101CD000332000EBC302C809507094F8900295704D
:101CE000012801D1022508E00120114684F8900264
:101CF000206802F061FF84F890522846B0BD01F0E0
:101D0000070101EB810100EBC100D0F86C017047C5
:101D100070B5044648B20D464FF4A871002848BF7C
:101D20001021601805F0070101EB810600F836105C
:101D300000EBC601E8090A614870CB70022B04BFB2
:101D40000020087194F89002012804BF022070BDA1
:101D500001F0FCFB02F09EFD002084F8900270BDB3
:101D6000B0B501F00701002501EB810400EBC404CC
:101D7000006804F5B27784F8501104F5A87184F86E
:101D800051512CC702F05EFF0020B0BDB0B5027902
:101D9000044601F007050120954225D84AB24FF4C8
:101DA000A873002A4FEAD11248BF294648BF102322
:101DB00001EB8101234403F8315003EBC10188702A
:101DC00094F890024A70012804BF0220B0BD01F0CF
:101DD000BDFB02F023FF25B9206804F5267102F04F
:101DE000E9FE002084F89002B0BDB0B501F0070410
:101DF000002504EB840100EBC101006801F8104FDD
:101E0000012401F1140781F824400B624C702CC7A7
:101E100002F018FF0020B0BD2DE9F04F87B0044656
:101E2000006803F029F9010419D4410500F13C834D
:101E3000410400F14983810400F14B83C10400F1A6
:101E40004D83010500F16383810500F1A283C00584
:101E500040F15A8301F0B3FC21F4807152E304F5A0
:101E6000267040F60F7B009004F11000029004F5FC
:101E7000A87001902068B0F94410B1F1FF3F00F361
:101E80004383B0F8442012F00F0A3CD030F92A10F6
:101E90004FEA4A091FFA81F8B1F1FF3F00F31A81B6
:101EA00030F8191001EA0B01803120F819100AEB03
:101EB0008A01019A02EBC106317B002900F0AF8054
:101EC000F178022940F0B980B0F850105FEA484537
:101ED00000EB4102317802EB0113B26900F1C880D6
:101EE000B3F80C7400236FF39F27D21B38BF1A4638
:101EF000B26101D801F066FB5FEA486200F1B5808B
:101F000001F0E9FBB1E00188D20626D401EA0B0119
:101F100001F500410180B0F8501000EB4100217C38
:101F200000EB0110616AB0F804046FF39F20E062D7
:101F300008440021606201F055FC607B002899D0C4
:101F4000A06A002896D12068617B41F08001C9B267
:101F5000A0F84C10002060738CE70A0548D409B241
:101F6000B1F1FF3F3FF786AF018801EA0B018031F5
:101F7000018001F0EDFBB1F80C346FF39F23C4F83E
:101F80006C3193B1D4F8641179B1B4F8562103F0EF
:101F900076F8D4F86401D4F86C1108440021C4F830
:101FA00064012046FFF754FE206801880A053FF5CA
:101FB00061AF01F44051B1F5405F3FF45BAFB0F861
:101FC000501000F20C42535A6FF39F235352D4F82F
:101FD00060313F2BC0F0E981DD064FF0FF364FEA5C
:101FE000531508BF06EB53158B5A43EA852312E2BB
:101FF00001F0AEFBB4F85621B1F80C3400996FF340
:102000009F23C4F86C3103F03AF82068018801EA94
:102010000B0180310180204600F067FB2AE7B0F811
:102020005010327800EB410101EB0211B1F80C7451
:102030006FF39F27CFB3F28832E0317848F2C003C4
:1020400030F8212002EA0B021A4320F8212000EB8D
:10205000011230F821104904B0F8501002EB410190
:1020600018D4B1F80C746FF39F27F7B1728917E099
:10207000B3F8047400236FF39F27D21B38BF1A46AE
:10208000B26101D801F09EFA5FEA486206D501F01C
:1020900022FB03E0B1F804746FF39F272FB132895C
:1020A00071693B4602F0EBFF00E0002706F11402E5
:1020B00007CA3A443844F261706111B13069B842DC
:1020C00004D931782046FFF7C3FD03E0206831468C
:1020D00002F0B8FD5FEA08607FF5CCAE206830F80A
:1020E000191001EA0B0101F5004120F819100AEB63
:1020F0008A01029A02EBC106F17801291CD1002164
:10210000B161317B002900F0F9805FEA486167D452
:102110007178012900F0E780002940F0EF8001F09C
:102120009DF9B0F80C146FF39F21A0F80C14B0F8CF
:102130000C1441F40041D9E05FEAC8511CD4B0F856
:102140005010B369002500EB4102317802EB011217
:10215000B2F804246FF39F229B1A38BF2B46B36159
:1021600040F2CD807169F369114471619918F16190
:10217000314602F067FD7DE63178B569B0F8507000
:102180005FEA486200EB01133ED403F20C4E0022DA
:102190003EF817706FF39F27ED1B38BF1546B561EA
:1021A0005DD95FEA484303D4F04601F0E8FAC64639
:1021B00096F82410012940F06981D6E904C1D6E9D6
:1021C000073539443B447161F361654580F0C68051
:1021D000002D00F0F880AC4686F824203262F6E04C
:1021E0007178012900F08580002940F0878001F096
:1021F00035F9B0F804146FF39F21A0F80414B0F877
:10220000041441F4004177E003F20449002239F854
:1022100017706FF39F27ED1B38BF1546B56141D985
:102220005FEA484301D501F0AAFA96F82410012983
:1022300040F02C81D6E90431D6E9075E39443D44AB
:102240007161F5619E4580F08D804FF0000CBEF10C
:10225000000F86F824C040F08880BE4687E075787D
:10226000012D4FD0002D56D1B0F850502B44B3F86B
:1022700004546FF39F25A3F80454B3F8045445F4B1
:102280000045A3F80454B0F850003EF800306FF356
:102290009F232EF800303EF8003043F400432EF820
:1022A000003038E07578012D3BD0002D42D1B0F8D8
:1022B000505039F805706FF39F2729F8057039F8E9
:1022C000057047F4004729F80570B0F8500018442D
:1022D000B0F80C246FF39F22A0F80C24B0F80C2463
:1022E00042F4004224E001F0B9F80021A0F80C14F7
:1022F00004E001F0B3F80021A0F80414317801F0F3
:1023000071FAB7E5B0F850502B44A3F80424B0F8A4
:1023100050002EF8002001F065FA5FEA48400FD522
:10232000B4E0B0F8505029F80520B0F85000184437
:10233000A0F80C2401F056FA5FEA484040F1A6806C
:10234000307821684AF2800331F8202002EA0B023B
:102350001A4402F5005221F8202097E0A5EB0C0367
:10236000336234E0AEEB030C9E46C6F820C07378AF
:10237000012B23D0002B7AD1B0F85070BEF13F0F63
:1023800039F807306FF39F2329F8073051D35FEAFC
:10239000CE634FF0FF324FEA5E1308BF02EB5E13CD
:1023A00039F8075045EA83235DE09BB303F001064B
:1023B000555A06EB530345EA83232EE0B0F850301C
:1023C00029F803E053E00023BC4686F824307578F2
:1023D000012D1AD0002D54D1B0F85070BCF13F0F30
:1023E0003EF807306FF39F232EF807302DD35FEAB6
:1023F000CC634FF0FF324FEA5C1308BF02EB5C1373
:102400003EF8075045EA832337E0B0F850302EF805
:1024100003C036E0535A654D2B438B5243F60F727F
:10242000018811404AF2800202F580525140018039
:1024300020E5BEF1000F14D00EF0010539F8073089
:1024400005EB5E0543EA85230FE0BCF1000F12D0D7
:102450000CF001053EF8073005EB5C0543EA8523E7
:102460000DE039F8073043F4004329F8073032898A
:102470001FFA8EF308E03EF8073043F400432EF8CD
:10248000073072891FFA8CF302F016FE307821684B
:1024900040F63F7331F820201A4048F2C003103B49
:1024A0005A4021F82020E5E401F089F921F4806107
:1024B000A0F84410204600F0F1F82046002107B0B3
:1024C000BDE8F04F00F004B901F079F921F4804142
:1024D00018E001F074F921F4005113E02068B0F81D
:1024E000401021F00401A0F84010B0F8401021F095
:1024F0000801A0F84010204600F0E2F801F05FF972
:1025000021F48051A0F8441007B0BDE8F08F206896
:10251000002203A9082A05D030F8223021F8123011
:102520000132F7E7B0F8402042F00102A0F8402065
:10253000B0F8402022F00102A0F84020B0F844207A
:102540005205FBD5B0F8442022F48062A0F8442064
:102550000022082A05D031F8123020F8223001324A
:10256000F7E7B0F8401041F00801A0F84010B0F8CB
:10257000441021F40061A0F84410B0F8401041F07C
:102580000401A0F84010204607B0BDE8F04F00F06D
:10259000C7B801F014F921F40071A0F844102046E6
:1025A00007B0BDE8F04F00F08FB800BF0080FFFF1C
:1025B00070B5002848D0044690F8910228B9002050
:1025C00084F89002204600F04BF800206071032050
:1025D00084F89102206802F0E6FA94E80700237B71
:1025E00002F076FA68BB20680021002502F05CFD4D
:1025F00038BB2079012100220023984209D0A61877
:1026000028323374C6E90855B562F5747174013324
:10261000F3E704F5B4710022002398420BD001F8CF
:10262000183C41E902220A6001F8152C01F8172C28
:1026300028310133F1E7237B94E8070002F0A7FA81
:1026400028B1022084F891020125284670BD00259A
:102650000120657384F89102206802F096FAF4E78D
:1026600000680C49884218BF7047E0B50A4800224C
:10267000016841F4000101600021006800F40000DD
:10268000019001981420FFF787FA1420BDE88C40D0
:10269000FFF776BA005C00401C10024010B50446FB
:1026A0008079022818BFFEF7AAFFD4F8D4020121CE
:1026B00001F092FED4F8D402BDE8104001F04CBE07
:1026C000D0F8D40201F070BED0F8D40201F076BE8A
:1026D00010B500F0A8FF04BF022010BD617300F028
:1026E00035FF02F0E3FC00F0E7BED0F8D42200F59D
:1026F0002671104601F07CBE10B500F094FF04BFB7
:10270000022010BD00F022FF02F0A8FC20460121AB
:10271000FFF794FA206802F036FA00F0CDBE000010
:1027200010B50446D0F8D40201F09FFEA07A20B183
:102730000248016841F00601016010BD10ED00E0A3
:1027400000286ED02DE9F8430D464D49044608682F
:1027500000F00700854209D9086820F007002843E7
:102760000860086800F00700A84265D12068894623
:1027700081075A49884617D5410705D5D8F8001072
:1027800041F4E061C8F80010010705D5D8F8001041
:1027900041F46051C8F80010A168D8F8002022F078
:1027A000F0021143C8F80010C0073CD1D9F800006E
:1027B00000F0070085420CD2D9F8000020F0070095
:1027C0002843C9F80000D9F8000000F00700A8422B
:1027D00032D12068410707D5E168D8F8002022F4FB
:1027E000E0621143C8F80010000708D52069D8F846
:1027F000001021F4605141EAC000C8F8000000F068
:1028000053F8D8F800101F4AC1F30311515CC840B7
:10281000234908601C480068FFF772F90020BDE8F2
:10282000F8830120704758F8041C6068022806D01D
:10283000012822D1890304D40120BDE8F88389014D
:10284000FAD5D8F8001021F003010843C8F80000B9
:10285000FEF7D0FF064641F288376068D8F80010CE
:1028600001F00C01B1EB800FA0D0FEF7C3FF801B7D
:10287000B842F2D90320BDE8F8838907DCD5E0E748
:1028800000200240146A000814000020DE481349AA
:10289000044A00680968C1F30221515CC8407047CE
:1028A00034000020246A000810B50C490C480A685E
:1028B00002F00C03082B07D1C2F3834309A4D2030F
:1028C000E35C02D40C48584310BD096809A2584380
:1028D000C1F34041515CB0FBF1F010BD0410024067
:1028E00000127A0002030405060708090A0B0C0D02
:1028F0000E0F10100102000000093D00002843D017
:102900002DE9FC4104460078BD4EC0070BD070682D
:1029100000F00C00042839D13068800303D56068CA
:10292000002800F0B6802078800717D5706810F076
:102930000C0F05D000F0CFFD42D17068C0033FD42A
:102940003068800703D52069012840F0A2806069C3
:10295000316821F0F80141EAC000306020780007BA
:102960005ED5A06900283ED0A6480121C0F8801499
:10297000FEF740FF0546706A800744D4FEF73AFF31
:10298000401B0228F7D902E10120704700F0A3FDA7
:1029900002D17068C003BFD462683068002A20F496
:1029A000803100F0F780B2F5A02F00F0DD80B2F5A5
:1029B000803F00F0DD803160306820F48020D9E075
:1029C00021699048002900F08F8001210160FEF705
:1029D00011FF054630688007B9D4FEF70BFF401B96
:1029E0000228F7D9D3E087480021C0F88014FEF709
:1029F00001FF0546706A800712D5FEF7FBFE401BFB
:102A00000228F7D9C3E080484FF4FA510068B0FBC0
:102A1000F1F0019000BF0198411E00280191F9D109
:102A20002078400714D4E7697FB100F054FD3ED10F
:102A3000012F2ED0216A706800F480328A4228D19A
:102A4000616A00F47010884223D10020BDE8FC8147
:102A5000F0695FEAC00808D4F06940F08050F06186
:102A6000F06900F0805000900098684F3868C00509
:102A700012D4386840F480703860FEF7BBFE05461B
:102A80003868C00508D4FEF7B5FE401B6428F7D9A6
:102A90007DE00120BDE8FC81E168306A002948D072
:102AA000052931D0012933D000F0E3FC32E055494B
:102AB000002088460866FEF79DFE0546022F09D1D4
:102AC0003068800179D5FEF795FE411B032002296D
:102AD000F6D9BBE730688001B7D5FEF78BFE411B06
:102AE00003200229F6D9B1E700210160FEF782FE3A
:102AF0000546306880077FF531AFFEF77BFE411B4E
:102B000003200229F5D9A1E740F004003062306AC1
:102B100040F001003062FEF76DFE054641F2883755
:102B2000306A800717D4FEF765FE401BB842F7D91C
:102B30002DE000F09EFC3062FEF75CFE054641F29F
:102B40008837306A800706D5FEF754FE411B032004
:102B5000B942F6D97AE7B8F1000F3FF564AFF069F2
:102B600020F08050F0615EE740F4802030603068F3
:102B700040F480303060FEF73DFE0546306880034B
:102B80003FF5D1AEFEF736FE401B6428F6D9032090
:102B9000BDE8FC813160306820F480203060FEF7B1
:102BA00029FE0546306880037FF5BDAEFEF722FEA4
:102BB000411B03206429F5D948E7206AB0F5803F1E
:102BC00005D1A168726822F4003211437160616A14
:102BD000726822F474121143084370600120C8F82F
:102BE0006000FEF707FE0446306880013FF52DAF18
:102BF000FEF700FE011B03200229F5D926E700BFDE
:102C000000100240000042423400002000700040EA
:102C1000411E0020B0EB116F1CBF01207047044A19
:102C2000F023516003490B700721906011607047D9
:102C300010E000E023ED00E070477047024690F896
:102C40003C00012804BF02207047F0B501F10807DD
:102C5000D1E900C44B690020C969E0CF82F83C008B
:102C6000126826F47C5624F4F04425F4705535435C
:102C70002C432CF4E0452C4327F4C0452C4323433C
:102C800023F4804319435164F0BD000090F83C30B8
:102C90000222012B23D010B580F83D2002680B687A
:102CA000546824F070041C439368B2F1804F546060
:102CB00008D0364CA24205D0354CA24202D0354C49
:102CC000A24204D1496823F0800319439160002295
:102CD000012180F83C2080F83D10BDE810401046EE
:102CE000704700BF70B110B500F0E7FC03D100F0F1
:102CF00064FC00F009F800F0A2FC012000F0C0FB29
:102D000000F04DBC0120704700682049884218BF80
:102D10007047E0B509480022016841F002010160F6
:102D20000021006800F00200019001981D20FEF7CC
:102D300033FF1D20BDE88C40FEF722BF1C1002406F
:102D400090F83D1001291CBF01207047022180F836
:102D50003D100068C168B0F1804F41F00101C160D1
:102D600008D00A49884205D00949884202D0094959
:102D7000884204D1724600F016FC964603D0724693
:102D800000F000FC96460020704700BF00040040A1
:102D9000002C01400008004010B500F083FC61D019
:102DA00084F83D0001204FF6777384F83C002068DA
:102DB00082689A4382600A68EAB1102A1BD0202AEE
:102DC00019D0302A17D0402A3DD0502A32D0602A5C
:102DD00018D0B2F5005F21D0B2F5805F3CD0702AE8
:102DE00026D1D1E90123C96800F0D1FB8160816857
:102DF00041F077012FE0816821F07001114341F02B
:102E0000070128E04B68CA68194600F00CFF2068EB
:102E1000816841F0670121F010011CE0D1E9012334
:102E2000C96800F0B4FB8160816841F4804112E020
:102E3000012012E000F07EFC2068816841F057011B
:102E400021F0200107E000F075FC2068816841F066
:102E5000470121F030018160002000F051FC012188
:102E600084F83D1010BD002846D0F8B5044690F80F
:102E70003D000D4618B900F0A0FB00F03FF802201D
:102E800044F2070284F83D00206881689143816024
:102E9000211D00F0C9FD2668D5E9000CD5E9022303
:102EA000B7683843B769316AB060A86942EA002060
:102EB0004FF6FC4290434FF6FF7227EA02021A4394
:102EC0001043EA6940EA02202A6940EA02102A6AAD
:102ED00040EA0230B06121F02200696940EA0C004A
:102EE00040EA01103062012000F042FB00F01AFBC2
:102EF00084F83D000020F8BD01207047FEB5006851
:102F00000021CDE90411CDE90211B0F1804F1AD1B1
:102F10009D48426842F001024260426802F00102AC
:102F20000192019A026842F004020260006800F017
:102F3000040001900320CDE903110290019802A939
:102F40000248FEF773FB06B080BD00BF00080140D9
:102F500070B500F054FB05D061B9012E08BF012BFC
:102F600017D070BD012D08BF012AFAD1022000F050
:102F70009FFB0CE0012E08BF012DF2D1012BF0D1F7
:102F8000012AEED100F0B8FA06D000F044FB04218B
:102F900003E0022000F0D0FA0021206800F040FB9E
:102FA000206800F0EFFA002070BD704770B504464D
:102FB0000068C5680669B10710D5A9070ED56FF07E
:102FC00002010161012121778069800702D000F0B0
:102FD000A3FB01E000F04DFB00202077700712D525
:102FE000680710D520686FF0040101610221217784
:102FF000806910F4407F02D000F08EFB01E000F009
:1030000038FB00202077300711D528070FD520681E
:103010006FF00801016104212177C069800702D0A7
:1030200000F07AFB01E000F024FB00202077F0069E
:1030300012D5E80610D520686FF010010161082153
:103040002177C06910F4407F02D000F065FB01E0F9
:1030500000F00FFB00202077F00708D0E80706D02B
:1030600020686FF001010161204600F0D5F83006BC
:1030700008D5280606D520686FF08001016120463A
:10308000FFF7DAFD700608D5680606D520686FF0F0
:1030900040010161204600F0C9F8B00601D5A8063C
:1030A00000D470BD20686FF0200101612046BDE8AA
:1030B0007040FFF7C2BD7047B0B500F044FB04BFDD
:1030C0000220B0BD00F020FB37D8DFE801F002227B
:1030D0000A1A2068294600F0F7FC206850F8181FEB
:1030E00006E02068294600F041FD206850F81C1FCA
:1030F00041F008010160016821F0040101602969C3
:1031000017E02068294600F05BFD206850F81C1F7E
:1031100006E02068294600F0FDFC206850F8181FE2
:1031200041F400610160016821F480610160296956
:103130000902026811430160002000F0E1FAB0BD0D
:1031400070B110B500F0B9FA03D100F036FA00F012
:1031500009F800F074FA012000F092F900F01FBAAB
:103160000120704700682A49884200D0704781B02A
:103170000548016841F400610160006800F40060E6
:103180000090009801B0704718100240704700008E
:1031900010B50446A1B1042904D0082914BF412068
:1031A000402000E03F20205C012811D102200829A6
:1031B00010D0042914BF84F8410084F83F000BE0CC
:1031C00094F83E00012803D1022084F83E0003E079
:1031D000012010BD84F84000206800F021FA20682A
:1031E0000B49884201D100F0E3F9B0F1804F07D0DC
:1031F0000D4A904204D0884202D00649884202D14A
:1032000000F0D1F901D000F0BDF9002010BD00BFE1
:10321000002C01400008004000680349884208BFB4
:1032200000F0E4BA704700BF000400407047FEE7BA
:103230000268516949054FF000010FD56FF48063B2
:1032400053612022016380F83D2080F83E1080F811
:103250003C10016C41F004010164012108467047F3
:10326000F8B515460E4604464F1C206840694007D5
:1032700044BF0020F8BD2046FFF7DAFF90B9002FC9
:10328000F3D0FEF7B7FA401BB04201D8002EECD1C4
:10329000206840694007E8D400F062F984F83C00F7
:1032A00000F045F90120F8BD2DE9F047DDF8209048
:1032B00004469846164601F47F0018278DB203F1A4
:1032C000010AB0F5803F08BF142700F04FFA17D16C
:1032D000BAF1000FF9D0FEF78DFAA0EB09004045D6
:1032E00002D8B8F1000FF0D100F040FAEDD100F0B3
:1032F00037F984F83C0000F01AF90120BDE8F087A6
:103300000020BDE8F0872DE9F041984616460446B6
:103310008FB2551C206841693940B94213D04169C8
:10332000490513D4002DF5D0FEF764FAA0EB080090
:10333000B04201D8002EEDD1206840693840B84233
:10334000E8D0202009E00020BDE8F081016800F00D
:10335000D3F96FF480614161042000F07BF90843E8
:1033600020640120BDE8F081F8B515460E460446FC
:103370004F1C20684069000644BF0020F8BD20466D
:10338000FFF756FF90B9002FF3D0FEF733FA401B3A
:10339000B04201D8002EECD1206840690006E8D484
:1033A00000F0DEF884F83C0000F0C1F80120F8BD20
:1033B00070B501310023372472B1060F01F8023BCA
:1033C00004EB1075B0F1204F38BF06F1300501F85D
:1033D000035C013A0001EFE770BD000080B50F48C3
:1033E0000F49002200F086FE08B1FEF708F90B48ED
:1033F0000C4901F057F808B1FEF701F907480A49EE
:1034000000F005FD08B1FEF7FAF8044801F05EF897
:1034100018B1BDE88040FEF7F2B880BD740E002000
:1034200018000020380000205C010020FEE7FEE7C5
:10343000064624F0004003F045B88DF807208DF8CB
:10344000040064208DF805104E210090704721463D
:1034500000F022BE00202146FCF790BFB0F85010CB
:103460000844317800EB01107047A0F840100020AC
:10347000704720F001003062306A20F0040070478D
:1034800084F8460084F83E0084F83F0084F8400049
:1034900084F8410084F8420084F8430084F8440032
:1034A00084F845007047D4F8B40229468268204663
:1034B00010472146FCF762BF002084F8900210BD3F
:1034C00030F8223040F60F7423400B4403F580435C
:1034D00020F822307047706800F00C000828704710
:1034E0001C21012201EAD00100F01F0002FA00F0C5
:1034F0007047204600F059BD0220002984F83E00A4
:1035000084F83F0084F8420084F84300704720208C
:1035100084F83D00002070472068016841F4007184
:103520000160704784F8420084F843007047206CC3
:1035300040F020002064704784F83E0084F8420088
:103540007047016841F4807101607047012084F880
:10355000900220687047B4F850202B7822447047BE
:1035600000202021206384F83D1084F83E0070473D
:1035700084F8460084F83E0084F83F0070472046F7
:1035800000F0E3BC016841F00101016070471A439B
:1035900042EA0121826822F47F421143704784F895
:1035A0003D00002010BD816801F007010629704729
:1035B0004A6C42F400424A647047002084F83C00A0
:1035C0002046704730F8212043F60F731A404AF224
:1035D00080035A4020F82120704768692A69002337
:1035E000C119286A69619042704794F89C020138B9
:1035F00002287047016821F001010160704790F8CE
:103600003E6090F83F5090F84230044690F84320D6
:1036100001200429704720680021012200F044BAEB
:10362000012200F041BA044690F890020128704748
:103630009E5A46EA872646F400469E52704702206C
:10364000211D84F83D00206800F0EEB994F89C023A
:103650000328704700212022216384F83D2084F84C
:103660003E1084F83C10216C704794F83C0001280F
:1036700070474DF808ED2046FFF71DFD20465DF828
:1036800008EBFFF783BD608D013860857047606A85
:103690002168024612F8013B0B61638D013B638593
:1036A0006262704790F83C2004460220012A70476D
:1036B00084F83F0084F843007047044690F83D00CA
:1036C0000028704784F83C0084F83E00704794F866
:1036D0003D002028704730F8212048F2C00302EA5C
:1036E0000B021A4320F82120704730F82240214075
:1036F000594020F82210704741F400710160704772
:10370000002184F83C1070470D4601204FEAB201B9
:10371000032984F83C0070472046FFF746BC016847
:1037200041F0010101607047B0FBF3F001306FF32D
:103730001F3070474B68CA68194600F063BA002012
:1037400084F83C007047044690F83C00012870471C
:10375000B0F8501094F8502100EB410101EB021138
:103760007047086840F00100086070472068C05941
:103770002840401BB0FA80F040098642704730F87C
:1037800021304AF2800503EA0B032B4403F5005372
:1037900020F821307047012084F83C00206801683F
:1037A000C907704784F83D10102184F83E100021AD
:1037B00021647047086120462946FFF7A4BD2068B0
:1037C000B0F8441070472068416901918069019008
:1037D0000198704721F40061016070472046012282
:1037E000192370472046FEF72ABA00002DE9F84F4A
:1037F000644800240068416A446208B202F07EFE18
:10380000614902F069FD614902F0F8FEDFF880913C
:103810000646604DC9F80400D9F80C0000286AD0AB
:10382000D9F8100001286BD1D9F80870D9F80C002C
:10383000AA46D9E9068502F061FE0146384602F043
:10384000DDFE314602F0A6FF53490746C9E90500EF
:103850008B4602F0D3FE294602F0A6FC4F490546EE
:1038600002F012FD4E4900281CBF0025C4F27A4523
:10387000284602F01EFD4B4900281CBF0025CCF253
:103880007A45C9F81C50D1E900408E68294602F0FB
:10389000B5FE05462046394602F0B0FE294655469B
:1038A00002F082FC04463846414602F073FF594656
:1038B00002F012FD0146304602F0A0FE214602F061
:1038C00073FC3949044602F0DFFC384900281CBF6C
:1038D0004CF20004C4F27944204602F0EAFC0028CD
:1038E0001CBF4CF20004CCF27944204602F0EAFD01
:1038F000A9F800001FE0C9F81C40A9F800401DE02D
:10390000D9F80800D9F80C4002F0DCFD40F2E731AC
:103910008842B8BF014621EAE170012C02D1A9F822
:1039200000000BE0D9F80C10013112BFB9F800000B
:103930004042A9F8000000B2002812D428464FF4F3
:1039400080410122FDF750FF28464FF4004100223C
:10395000FDF74AFFB9F90000154909684863BDE859
:10396000F88F28464FF480410022FDF73DFF28469E
:103970004FF400410122FDF737FFB9F90000404242
:10398000EAE700BFAC1400200000A7430080BB455D
:10399000F0010020000C01400AD7233C00007A44CB
:1039A00000007AC40400002000C0794400C079C43B
:1039B0006414002070477047FEF786B8B0B590B029
:1039C0004FF4E010002402250F904FF48030CDE931
:1039D0000B44CDE909440D950E90CDE90704012073
:1039E00006900A9006A8FEF789FF18B1EFF3108041
:1039F00072B6FEE74FF4806005940221CDE90340E2
:103A00000F20CDE9010501A8FEF79AFE18B1EFF3EA
:103A1000108072B6FEE710B0B0BD70470148FFF7E6
:103A2000C5BA00BFF414002070B5754A036890420F
:103A300016D0B0F1804F05D0194CA04202D0194CDD
:103A4000A04203D14C6823F070032343B0F1804FB0
:103A50000AD0134CA04207D0124CA04204D007E079
:103A60004C6823F070032343CC6823F44073234352
:103A70004E6923F080030C688D68334390420360E5
:103A8000C562846201D10969116301214161016943
:103A9000C90703D0016921F00101016170BD00BFB8
:103AA000000800400004004010B501F01F01012390
:103AB000046A8B4002FA01F124EA03030362026AFA
:103AC0001143016210BD0000F0B5036A026A4C4E5A
:103AD00022F0010223F0020302628C680A68456842
:103AE00023438469B0420CD1D1E9057625F44075B1
:103AF000D1F80CC023F00C033D4335432CF00406F1
:103B0000334324F073044560224382614968416372
:103B10000362F0BDF0B5036A026A394E22F010026A
:103B200023F02003B04202628C680A68456843EAC9
:103B3000041384690FD1D1E9057625F44065D1F8E5
:103B40000CC023F0C0033E4345EA86056FF04006F3
:103B500006EA0C16334324F4E644456044EA0222A4
:103B60008261496881630362F0BD00BFF0B5036AFA
:103B7000026A234E22F4807223F40073B042026280
:103B80008C680A68456843EA0423C4690ED1CE688C
:103B900025F4405CD1E9057523F440633D433602CA
:103BA00040F2FF47BE434CEA0515334324F073044B
:103BB00045602243C2614968C1630362F0BD00BF32
:103BC000F0B5026A036A0E4F23F48053B8420362D1
:103BD00045680C688B68C66904D14F6925F4804537
:103BE00045EA8715456026F4E64545EA0424C461A4
:103BF0004968016422F4005141EA03310162F0BDD9
:103C0000002C014010B5036A046A24F00104046228
:103C1000846924F0F00444EA0212826123F00A026B
:103C20001143016210BD10B5036A046A24F0100448
:103C30000462846924F4704444EA0232826123F00D
:103C4000A00242EA0111016210BD70B5D0F8B8229D
:103C5000B2B101EB810300EB830353F81C4F5CB15D
:103C6000D0F8C05201EB810605EBC6052D6AB4FB06
:103C7000F5F606FB15442CB10024C2F8144207E007
:103C8000022405E0002400221C60002300F0F6FB63
:103C9000204670BDB0B5D0F8B852044600F0EFFA37
:103CA000C5F80C02D4F8B80248B1D4F8BC22D5F853
:103CB000040205F50371D26890470020B0BD0220D0
:103CC000B0BD000070B50F4E81210446B0470025FD
:103CD00020460121E562B04720468221C4F86C519C
:103CE000B047D4F8B802256448B1D4F8BC024068A3
:103CF0008047D4F8B80200F0C7FDC4F8B8520020DD
:103D000070BD00BF31410008D0F8BC1281B110B5C0
:103D1000D0F8B84294F80002FF2807D08B6894F8D6
:103D2000012221469847FF2084F80002BDE8104098
:103D3000002070470A21018000487047F8000020E9
:103D4000432101800048704770000020432101801A
:103D500000487047B40000204321018000487047AC
:103D6000040100202DE9F0410546007C40271D4C50
:103D70004FF04008002808BF4FF4007728463B4624
:103D800081210222A04701262846012102223B462A
:103D9000EE62A0472846822103220823C5F86C6101
:103DA000A0474FF407702E6400F070FDC5F8B8020C
:103DB000A8B10746D5F8BC02006880470026C7F8BE
:103DC0001462C7F81862287C002808BF4FF40078F6
:103DD000D7F8042228464346012100F0B4FA3046C1
:103DE000BDE8F0812F430008D0F8B81269B180B562
:103DF000027C4023002A08BF4FF40073D1F804224C
:103E0000012100F0A0FA002080BD0220704719B106
:103E1000C0F8BC120020704702207047D0F8B802EA
:103E2000C0F8041200207047D0F8B802C0F8102281
:103E3000C0F80812002070477CB50446D0F8B8627C
:103E400000200D468DF80700ADF8040091F9000040
:103E500010F0600110D0202932D1EA88D2B1B0F13F
:103E6000FF3F33DD6878314686F8012286F800028C
:103E7000204600F075F834E068780B281CD00A283A
:103E800011D0E8B994F89C02032819D101A9204661
:103E9000022224E0D4F8BC126878002200248B6847
:103EA000294698471EE094F89C02032808D10DF19A
:103EB00007012046012212E094F89C02032810D04A
:103EC0002046294600F041F802240BE0D4F8BC1249
:103ED00068788B6831469847EA882046314600F07A
:103EE00057F8002420467CBDD0F8B8329BB1D3F8F7
:103EF0001422012182B980B5C3F81412D3F810122C
:103F0000D3F8082201638BB2812100F0B7FA0021B7
:103F1000BDE8804000E002210846704780B5D0F837
:103F2000B42252689047002080BD80B513460A46EF
:103F3000002100F008FA002080BD80B513460A4633
:103F4000002100F09BFA002080BD10B580210446BE
:103F500000F079FA20460021BDE8104000F073BA65
:103F600080B513460A460321C0F894120021C0E927
:103F7000573300F0E8F9002080BD80B5052100220C
:103F80000023C0F89412002100F0DDF9002080BD6C
:103F900080B513460A460221C0F894120021C0E9F8
:103FA000073300F06BFA002080BD80B504210022A9
:103FB0000023C0F89412002100F060FA002080BDB8
:103FC00010B5274C0A4602A0FFF741FA204610BD63
:103FD00043444320436F6E666967000012200880E7
:103FE000004870474801002010B51D4C0A4602A049
:103FF000FFF72DFA204610BD43444320496E7465F7
:104000007266616365000000042008800048704704
:104010006C01002010B5124C0A4602A0FFF717FAF7
:10402000204610BD53544D6963726F656C656374AF
:10403000726F6E696373000010B5094C0A4602A0E6
:10404000FFF705FA204610BD53544D333220566910
:10405000727475616C20436F6D506F727400000054
:1040600054020020B0B51A200880094908688A68FF
:1040700080180BD0074D4C680822A91CFFF798F94F
:1040800005F1120120460422FFF792F90148B0BD64
:10409000E8F7FF1F70010020F0B1B0B5002304461F
:1040A000257815B101340133FAE7DCB2022303EBC2
:1040B000440414800C70032201240A5502784AB18A
:1040C000DCB29D1C01300A5543F001022B46D4B2EC
:1040D0000022F2E7BDE8B04070470000C1000223B3
:1040E000034A042838BF22FA01F3D8B2704700BF50
:1040F0000002010288B1D0F8B43213B10023C0F835
:10410000B43209B1C0F8B01280B50121027080F854
:104110009C1200F0B9F8002080BD0220704780B5E5
:10412000D0F8C002FDF7BEFDBDE88040FFF7D6BF66
:1041300080B5D0F8C002FDF795FDBDE88040FFF7DF
:10414000CDBFB0B5044669B1D4F8B40242693AB102
:1041500094F89C02032803D1204690470020B0BD6C
:104160000220B0BDD4F89402B0B1042814D00228C3
:1041700016D1D4E9081081421BD9081A114683B21E
:10418000206220461A46FFF7D8FE20460021002272
:10419000002300F0D8F803E02046802100F053F916
:1041A00094F8A0120020012904BF84F8A002B0BD39
:1041B000B0BDE169B1FBF0F202FB101272B98142AD
:1041C0000CD3D4F89802814208D220460021002264
:1041D0000025FFF7B2FEC4F89852D6E7D4F8B4022F
:1041E000C16829B194F89C02032801D12046884770
:1041F0002046802100F027F92046FFF7BEFECFE7DA
:10420000B0B5044661B1D4F8B402826932B194F811
:104210009C02032802D1204690472DE002252CE085
:10422000D4F894020025052812D0032825D1D4E91A
:104230005810814213D9091AC4F86011814238BF5D
:10424000084683B2114620461A46FFF76EFE13E079
:1042500020460021C4F8945200F0F5F80DE0D4F89F
:10426000B402016929B194F89C02032801D12046C7
:1042700088472046FFF799FE00252846B0BDD0F8B4
:10428000C002FDF73CBD0000B0B504461A4800214D
:10429000017341810221C4F8C002C0F8D442817187
:1042A0000821017115490160FEF782F908B1FDF797
:1042B000A6F9D4F8C002124D002100221823A84705
:1042C000D4F8C002802100225823A847D4F8C002A5
:1042D00081210022C023A847D4F8C0020121002276
:1042E0004FF48873A847D4F8C002822100224FF40B
:1042F0008073A8470020B0BD8C110020005C0040F6
:10430000051C0008D0F8C00201EB810201F07F0318
:1043100049B203EB8303002900EBC20200EBC300A8
:1043200002F5A97248BF00F112021078704710B56B
:104330001446D0F8C0021A462346FDF7E9FCBDE852
:104340001040FFF7CBBE80B5D0F8C002FDF708FDE6
:10435000BDE88040FFF7C2BEF8B50021002240232F
:10436000044600254026FFF7E2FF01272046802172
:1043700000224023C4F86461C4F85871FFF7D7FFE6
:10438000D4F8B80284F89C726662A761C4F89452AB
:10439000C4F8A452656028B1D4F8B4020021426880
:1043A000204690470020F8BD90F89C12042904BFD5
:1043B00090F89D1280F89C120020704790F89C1293
:1043C000032907D1D0F8B412C96919B180B588475B
:1043D000BDE880400020704701740020704780B520
:1043E000D0F8C002FEF774F9BDE88040FFF776BE52
:1043F000B0B500F52A750446284600F048F8B4F830
:10440000AE120120C4E9A50194F8A80200F01F0132
:1044100002290CD0012905D071B92046294600F0A7
:104420005BF80EE02046294600F011FA09E020462C
:10443000294600F079F904E000F08001204600F000
:1044400002F80020B0BD80B5D0F8C002FDF79EFC98
:10445000BDE88040FFF742BE80B5D0F8C002FEF74D
:104460004BF9BDE88040FFF739BE90F89C1280F808
:104470009D12042180F89C120020704780B5D0F86E
:10448000C002FDF7B2FCBDE88040FFF727BE0A7806
:1044900002704A7842704A8842808A888280C9883D
:1044A000C180704719B1C0F8B412002070470220D3
:1044B0007047D0F8B4223AB180B51268904700280E
:1044C00018BF0120400080BD0220704780B5FFF773
:1044D000C3FF002080BD0000BCB5044608780D462F
:1044E000C0F34110411E022902D2FEF7DCFF17E1A2
:1044F000002840F013816878092800F20F81DFE876
:1045000010F00A002C000D014A000D01520071004C
:104510000D011E003600FFF768F800F2FF80E88802
:10452000022840F0FB80D4F8A40203222146002890
:1045300008BF012241F80C2F204602226EE0E888D5
:10454000012840F0EB8094F89C02411E02295FD2C2
:104550000020214641F8080F5EE0FFF746F800F220
:10456000DD806888012840F0DB80002018E0688842
:104570006C4DC1B22870022980F0D080FFF766F838
:104580004FD0022840F07180002900F0C480032041
:1045900084F89C0250E06888012840F0C180012026
:1045A000C4F8A402B7E0A888002840F0B780E888E3
:1045B000002840F0B3806D887F2D00F2AF80FFF7B8
:1045C00045F800F0AB80E9B2204684F89E52FFF730
:1045D00006FFFEF78EFF002D0CBF0120022084F89D
:1045E0009C029DE000204FF0FF31ADF80600688886
:1045F00001EB1021062900F29180DFE801F0043080
:10460000248F8F3D4700D4F8B012207C0A686FE0F9
:10461000032840F08380211D20460122FFF7B8FCCB
:104620007EE000293ED06068012800F07480C1B2AD
:104630002046FFF773FC297820466160FFF739FFB9
:10464000022868D16AE0C0B2052867D8DFE800F028
:1046500003473F433B4BD4F8B002426846E0217C1D
:10466000D4F8B40239B3C16A26E0FEF788FF29788E
:104670002046FFF753FC53E0207C00284ED1D4F8AD
:10468000B402416B0DF10600884734E0207C00281D
:1046900044D1D4F8B402016B0DF1060088470146FD
:1046A00007200EE000206060022084F89C02204673
:1046B000FFF734FC2FE0816A0DF1060088470146C0
:1046C0000220487018E0D4F8B00242690EE0D4F835
:1046D000B002C2680AE0D4F8B002026906E0D4F879
:1046E000B002826802E0D4F8B0028269B2B1207CE4
:1046F0000DF1060190470146BDF8060048B1EA8871
:104700003AB1904238BF02462046ADF80620FFF786
:104710003FFCE88820B9FEF7ECFE01E0FEF72FFF32
:104720000020BCBD50020020B0B50A4609780446FE
:104730004FF0FF3301F0600003EB5013022B06D261
:10474000D4F8B402114683682046984770E0C1F35C
:10475000411100296AD1202807D1D4F8B4021146AA
:1047600083682046BDE8B040184750781179F8B109
:1047700001280ED0032859D1FEF768FF0CD15088CC
:1047800078BB48062DD0D08858BB2046FFF75BFE8B
:1047900027E0FEF75BFF1DD0022847D1480645D031
:1047A0002046FFF750FE20468021FFF74CFE3FE0F9
:1047B000FEF74CFF18D0022838D1480636D108063B
:1047C0004FF0140058BF4FF4AA7000212150211857
:1047D000204638E0508858BB480602D02046FFF7F4
:1047E0009EFCFEF786FE23E001F00F00802900EB1F
:1047F000800004EB80002CBF8069D0F85801A8B17C
:1048000001F07F0201EB8100802902EB820204EBC0
:10481000800004EB820202F1140538BF00F5AA758E
:1048200041F08000802805D1002009E0FEF7A7FEB6
:104830000020B0BD2046FFF765FD002818BF01200D
:104840002860204629460222FFF7A2FBF0E7B0B518
:104850000446087800F06000602807D0FEF7C5FE27
:1048600004D888880D4610F0FE0F03D0FEF787FEAF
:104870000020B0BDFEF717FEE9880029F8D1002816
:10488000F6D1FEF736FEF3E77047000000487047A8
:1048900054040020F0B50B78CD7847F2706430F8FE
:1048A0002320032D22EA04040ED84FF0000EDFE887
:1048B00005F002050D0844F4007407E044F4806438
:1048C00004E044F4C06401E04FF0010E7E4E40F677
:1048D0000F7748F2800C344320F8234030F823400F
:1048E0003C401C43344320F823400C7B002C50D028
:1048F00048F28002022D40F60F6608BF02F5807272
:1049000030F823403440224320F8232000EB0312E8
:10491000B0F850400E89144426F00106A4F8006453
:10492000B0F8504022444C8924F00104A2F8084415
:1049300030F82340497800294FD0610409D530F878
:10494000231040F60F721140614401F5804120F8B8
:10495000231030F82310490608D530F8231040F60C
:104960000F7211406144403120F8231030F82310B9
:1049700040F63F7211400CF120024A40012D08BF61
:1049800041EA0C0220F8232030F8231043F60F727E
:104990004AE0B0F85060CF884A781C0127F0010740
:1049A000002A45D001193144A1F8007430F82310D1
:1049B000490608D530F8231040F60F7211406144C3
:1049C000403120F8231030F8231040F63F72114098
:1049D000012D2AD00CF1200270E0610409D530F8D5
:1049E000231040F60F721140614401F5804120F818
:1049F000231030F82310490608D530F8231040F66C
:104A00000F7211406144403120F8231030F8231018
:104A100043F60F7211400CF54052514040F63F7280
:104A200020F8231030F82310114041EA0C0146E031
:104A30000219941902F20C45A4F80874B0F85060F9
:104A4000AA5B6FF39F22AA5309693F290BD3CC06B7
:104A50004FF0FF324FEA511408BF02EB5114715B63
:104A600041EA842109E039B101F00104AA5B04EBB9
:104A7000510142EA812102E0A95B144A1143A95382
:104A800030F82310490409D530F8231040F60F728E
:104A90001140614401F5804120F82310002B1FBF15
:104AA00030F8231043F60F7211400CF5005201BF8D
:104AB000018843F60F7211400CF54052514020F826
:104AC00023107046F0BD00BF8080FFFF0080FFFF15
:104AD00000207047F0B50A780D7B4C7848F28001D1
:104AE00030F8223015B34CB35B0401D5FEF7E8FC77
:104AF00030F8223001F5804540F63F745B0643F6FE
:104B00000F7308D530F8226040F60F773E400E4410
:104B1000403620F8226030F8226040F60F773E40A1
:104B2000354320F8225048F280051EE0ACB15B0608
:104B300040F63F731FD501F1400514E05B0401D539
:104B4000FEF7BEFC30F8223001F1400543F60F7449
:104B50005B0640F63F73D5D4DDE75B0443F60F7385
:104B600009D501F5804540F60F7430F822603440D5
:104B70002C4320F8224030F822402340194320F8EB
:104B800022100020F0BD0020704700207047012156
:104B9000A0F840100021A0F84010A0F84410A0F8A0
:104BA000501000207047B0F8401044F2FF0211404E
:104BB000FEF75BBC002070470A7B62BBB0B50A7889
:104BC0004C7830F8223094B15B0648F2A00308D547
:104BD00030F8224040F60F752C401C44203420F859
:104BE0002240C978012914D040F63F710FE05904E2
:104BF0004BF2800309D530F8221040F60F742140A3
:104C0000194401F5805120F8221043F60F71FEF788
:104C10006CFDBDE8B04000207047000010B50A7878
:104C20004978074B002940F63F7108BF03F57F63C1
:104C300008BF43F60F71FEF758FD002010BD00BFFE
:104C40009080FFFF2DE9F0414A780D460446012A85
:104C500056D1AF69296948F280088F4228BF0F46B4
:104C6000287B002876D0EA78286A022A40F0A780BC
:104C70002A7840F60F6634F822303340884240F2FA
:104C8000E98008EB0301C01B01F5807124F82210B4
:104C90002862110134F8220021444006B4F8500083
:104CA000084400F1EB80A0F80474BBB220466969A7
:104CB0002A8900F001FAFEF790FC88BFC31B2B6223
:104CC00088BF38466A78012A00F01681002A40F031
:104CD000A081FEF740FC1B0102F20C423F28D65A8D
:104CE0006FF39F26D652C0F08881C7064FF0FF367B
:104CF0004FEA501708BF06EB5017FEF799FC88E102
:104D0000287BB0B3E87801286BD0022840F090806F
:104D10002878002A40F02581B4F85010214401F28F
:104D2000044701017A5A6FF39F227A522A693F2A77
:104D30004FEAC26C4FEA521EC0F0CB804FF0FF36F4
:104D40007346BCF1000F08BF06EB5213CE5B46EA78
:104D50008323E0E0EA886969BBB2204600F0ACF941
:104D6000B4F850002978204400EB0110A0F8047436
:104D700054E1B4F85000204400F20C4128780201BC
:104D80008B5A6FF39F238B522E69AB699F1B38BFE1
:104D90000027AF6138BF1E4648F280033F2E4AD33A
:104DA000F7064FF0FF354FEA561708BF05EB5617C9
:104DB000555A45EA872545F40045555247E0C01B42
:104DC0002862287834F8201049064FEA0011B4F818
:104DD0005000214408444BD4A0F8047469692A891E
:104DE0004AE02969A869431A38BF0023AB6138BF7C
:104DF00001462878002A40F0BF80B4F850204FEADE
:104E0000C16E4D09224402F204460201B35A3F2901
:104E10006FF39F23B35265D34FF0FF372B46BEF19C
:104E2000000F08BF07EB5113975B47EA8323B6E0F7
:104E30000120BDE8F0818D5A002E0FBF45F40045DA
:104E400006F0010707EB560645EA86258D5203F565
:104E50004051A0E043EA080124F8221004EB0211BB
:104E6000B4F850201144A1F8040469692A89D1E0FA
:104E7000A0F80C7469696A89BBB2CCE0A0F80C7424
:104E8000BBB2204669696A8900F016F9FEF7A5FBF6
:104E900088BFC31B2B6288BF38466A78012A32D08C
:104EA000002AE3D1FEF757FB1B0102F204423F2820
:104EB000D65A6FF39F26D652C0F0BE80C7064FF079
:104EC000FF364FEA501708BF06EB5017FEF7B0FB4E
:104ED000CCE7FAB102F001067B5A06EB520643EA30
:104EE00086261AE0002959D001F00107B35A07EBD2
:104EF000510743EA872754E0FEF72DFB02EB03122C
:104F0000A2F80C0485E0FEF726FB02EB0312A2F8E0
:104F10000404ABE77B5A504E1E437E523F2AB4F83E
:104F20005030234403F20C477B5A6FF39F237B528C
:104F30000AD34FF0FF33BCF1000F08BF03EB521E42
:104F4000CA5B42EA8E2209E03AB102F001067B5ABE
:104F500006EB520243EA822202E07A5A3E4B1A439F
:104F60007A52E96941B134F8202048F280015304B3
:104F700004D4520604D50CE036490AE0520608D59E
:104F800034F8202040F60F731A400A44403224F8C7
:104F9000202001F5405143F60F7244E0B35A2E4FE2
:104FA0001F43B75248F2800C3F29B4F850302344D5
:104FB00003F20C46B35A6FF39F23B3520DD34FF055
:104FC000FF33BEF1000F08BF03EB5115915B41EABF
:104FD000852141F4004191530CE039B101F0010504
:104FE000B35A05EB510143EA812102E0B15A41F481
:104FF0000041B1520CF54051CDE7D65A00280FBF01
:1050000046F4004600F0010707EB500746EA872602
:10501000D6526A8983B2204600F04EF8287808F10B
:10502000300140F63F7234F820301A40514024F8E5
:1050300020100020BDE8F081D65A00280FBF46F4AA
:10504000004600F0010707EB500746EA8726D652D4
:105050000CE700BF8080FFFF0080FFFF0021A0F869
:1050600044104FF43F41FEF700BA00000148FCF73E
:10507000D3BE00BF8C110020B0F84400704710B5BB
:1050800000EB420000F58062481C590831B132F84B
:10509000044B013920F8014C0230F7E7D9071CBF57
:1050A000118800F8011C10BD0020704711B9802143
:1050B000A0F84C100020704700EB42005A1C00F58D
:1050C000806052082AB131F8023B013A20F8043BD3
:1050D000F8E77047FEE70000B0B5144C3220A04757
:1050E000134D3020A8470520A0473020A8470120B5
:1050F000A0473020A8470A20A0472020A8470A2020
:10510000A0472820A8470120A0470820A847012041
:10511000A0470120A8470220A0470620A847012059
:10512000A0470C202946BDE8B040084709160008F2
:105130004D510008012803D020B941F0800101E061
:1051400041F0C001C8B200F001B80000E0B50101B3
:1051500000F0F000042301F108020C318DF8061074
:1051600000F108010C30FEF768F9E84801AAFCF7E5
:10517000D7FB8CBDE0B5010100F0F000042301F184
:1051800009020D318DF8061000F109010D30FEF70E
:1051900054F9DE4801AAFCF7C3FB8CBD10B50446E8
:1051A000207818B1FFF7E6FF0134F9E710BD0000E1
:1051B00098B0FCF793FCFEF701FC0024CD4FCE4DD8
:1051C0000DF13C08CD4ACDE91144CDE90F444146EB
:1051D000386840F020003860386800F02000009007
:1051E0000098386840F004003860386800F0040027
:1051F00000900098386840F008003860386800F087
:10520000080000900098386840F010003860386856
:1052100000F01000009000980320129002201090DF
:105220004FF480700F9005F58230904705F5843675
:105230004FF4404100223046FCF7D6FA05F5863B94
:105240004FF4005101224FF0010A5846FCF7CCFA06
:105250004FF440404FF002094146CDE910A40F90B1
:105260003046A64ECDF84890B0474FF40050414626
:10527000CDF84890CDE910A40F905846B047386853
:1052800040F2E731472205F5943340F4006038607E
:10529000386800F400600F900F98386840F0010003
:1052A000386038682F4600F001000F900F980E9478
:1052B000CDE90C44CDE9084415949148C0E9003289
:1052C000C0E90241C0E904448461FDF70BFD18B157
:1052D000EFF3108072B6FEE78948FDF731FF18B191
:1052E000EFF3108072B6FEE74FF480500B908448C5
:1052F0000BA9FDF751FD18B1EFF3108072B6FEE770
:105300007F4808A9FDF7C2FC18B1EFF3108072B610
:10531000FEE760206D4618210090281DFBF7C4F8B9
:105320007748294600220024FDF7C6FE18B1EFF3A6
:10533000108072B6FEE70FAE14213046FBF7B4F8CA
:105340006F4D4FF400503146169414902846FDF7E7
:1053500075FC18B1EFF3108072B6FEE769480021C2
:105360004FF6FF724FF08043CDE91611CDE91211CF
:10537000CDE90011C0E9021201228161C0E90031CA
:105380000161CDE91412CDE9101203220F920FA989
:10539000FDF769FD18B1EFF3108072B6FEE75948CA
:1053A0006946FDF773FC18B1EFF3108072B6FEE7A3
:1053B0005548002142F20F7247231291CDE9101196
:1053C000CDE900118161C0E90073C0E902120161F9
:1053D000FDF788FC18B1EFF3108072B6FEE74FF4CA
:1053E00080500F9048480FA9FDF7D6FC18B1EFF395
:1053F000108072B6FEE7444869465E46FDF746FCFB
:1054000018B1EFF3108072B6FEE71D2000210022D4
:105410000024FCF7C1FB1D20FCF7B2FB3B483C4AD3
:105420004FF4804107F5A043C0E90032C0E90244CF
:10543000C0E90414C0E906440462FCF7DFF918B1BE
:10544000EFF3108072B6FEE7FDF7C8FFFFF744FEEA
:1054500000200021FFF76EFE2EA0FFF79FFE2846DA
:105460000021FDF795FE2868416C41F4004141643C
:1054700024483C21FDF76CFD2348FDF761FCDFF873
:10548000A4A00DF13C0B0FF2A0080FF2AC093546B9
:105490000AF12007DAE9014001F014F8FDF7C8FF2E
:1054A0000346584641463246FAF7D6FE012000210F
:1054B000FFF740FE5846FFF771FEDAE9014001F0C0
:1054C00001F8FDF7B5FF0346384649463246FAF77C
:1054D000C3FE3846FAF784FF81B23846FCF778F805
:1054E00028464FF40051FCF777F96420FCF78CF85C
:1054F000D0E700BF18100240000400402D1600083D
:1055000064140020AC140020F41400203811002092
:10551000A0860100504944204D6F746F722043747F
:10552000726C0000F0010020533A256420523A25A5
:10553000642020200000000025642C25640D0A0052
:1055400023F07F4720F07F4C80EA030000F000400A
:10555000ACEB070303F57C5303F1FF032DE980490E
:1055600009B44FEA144324EA03484FEA154B25EAED
:105570000B4E0FF2042606EB13273E7803FB06675B
:10558000C7F5000707FB06F64FEAD64606F1020606
:105590004FEA543707FB066CCCF1005C4FEA1C471E
:1055A0002CEA074C0CFB06F507FB06F404EB15464A
:1055B0004FEA961649085FEA320234BF00204FF0E6
:1055C00000404FEAD13706FB07FC4FEA1C4C0CFBAE
:1055D0000BF7D21B03FB0CF761EB07010CFB0EF77B
:1055E000B0EB074072EB17420CFB08F734BFA2EB9D
:1055F0000742B2EB074261EB17414FEA0C444FEA16
:10560000910706FB07FC4FEA1C4C0CFB0BF7B0EBB9
:10561000C74072EB573203FB0CF734BFA2EBC74213
:10562000B2EBC74261EB57310CFB0EF7B0EBC70092
:1056300072EB57720CFB08F734BFA2EBC702B2EB58
:10564000C70261EB57714FEA816141EA92114FEA5B
:10565000826242EA90124FEA806004EBCC04039F1E
:105660004FEAD13706FB07FC4FEA1C4C0CFB0BF74B
:10567000D21B03FB0CF761EB07010CFB0EF7B0EB41
:10568000074072EB17420CFB08F734BFA2EB07424E
:10569000B2EB074261EB17414FEA8C5504EB9C24B7
:1056A0004FEA910706FB07FC4FEA1C4C0CFB0BF77B
:1056B000B0EBC74072EB573203FB0CF734BFA2EBE1
:1056C000C742B2EBC74261EB57310CFB0EF7B0EBB0
:1056D000C70072EB57720CFB08F734BFA2EBC7028E
:1056E000B2EBC70261EB57714FEA816141EA921157
:1056F0004FEA826242EA90124FEA806015EB4C2535
:1057000044F100044FEAD13706FB07FC4FEA1C4C7A
:105710000CFB0BF7D21B03FB0CF761EB07010CFB37
:105720000EF7B0EB074072EB17420CFB08F734BFE3
:10573000A2EB0742B2EB074261EB17414FEA81311E
:1057400041EA92414FEA823242EA90424FEA803087
:105750004FEA0C7615EB1C1544F1000448EA0343AC
:105760004EEA0B484FF0000EB2EB080C71EB03074A
:1057700024BF624639464EEB0E0E4FF0000B001868
:10578000524149414BEB0B0BB2EB080C71EB030799
:105790007BF1000B24BF624639464EEB0E0E4FF0F4
:1057A000000B0018524149414BEB0B0BB2EB080CBC
:1057B00071EB03077BF1000B24BF624639464EEBC9
:1057C0000E0E51EA020718BF46F0010616EB0E76E0
:1057D00055F1000254F1000103D5BDE88901BDE88F
:1057E0000088BDE88901BDE80048B619524141EB87
:1057F0000101A3F10103704780807F7E7D7C7B7A6D
:105800007978777676757473727171706F6E6E6D6C
:105810006C6C6B6A6A696868676666656464636312
:1058200062616160605F5F5E5E5D5D5C5C5B5B5A98
:105830005A59595858575756565555555454535305
:1058400052525251515050504F4F4F4E4E4D4D4D60
:105850004C4C4C4B4B4B4A4A4A49494948484847AB
:1058600047474746464645454544444444434343E9
:10587000434242424241414110B546EA06464FEAA0
:10588000164646EA42564FEAD22242EA41524FEACF
:10589000D121A3F57053A3F1010300F02FF820F0FC
:1058A000004000F0004700F1020CBCF5006F01EB76
:1058B0000050114640EA070000D210BDBAF1000FB7
:1058C0000AD01CB503B44FF004004FF004014FF0B0
:1058D00000000FBCBDE810404FF00001BBF1010F0C
:1058E000B9BF04484FF0FF310348002140EA0700E8
:1058F00010BD00BFFFFFEF7F0000F07F9C46002B34
:1059000030D477002BD04FEA37071CB503B44FF0E3
:1059100010004FF01001BAF1000F06D0BCF1000FDB
:10592000DCBF40F0080040F008014FF000000FBC61
:10593000BDE810400BF1010BBBF1010F08BF5FEA9E
:10594000170722BF12F1010211F101014FF00041CE
:1059500043F1000300F0004043EA00007047F9D330
:105960005708D0E746EA06464FEA164613F1400FBD
:105970001FDD13F1200FDFBF16430A46002120333D
:105980005B42BED0C3F1200746EA06464FEA164600
:1059900002FA07F746EA070622FA03F2C3F12007E4
:1059A00001FA07F742EA070221FA03F14FF0000378
:1059B000A7E746EA020646EA06464FEA164646EAE0
:1059C0000106BCBF46EA0646360C4FF000034FF016
:1059D00000024FF0000194E72DE9804C70B49A4624
:1059E000934691E8380007C831EA400C48BF34EAD2
:1059F000430C03D5FFF7A4FDFFF780FFF0BCBDE823
:105A0000008C2DE9804C70B49A46934691E838009A
:105A100007C831EA400C48BF34EA430C03D5FFF70E
:105A20008FFDFFF729FFF0BCBDE8008C2DE9804C0D
:105A300070B49A46934691E8380007C810F0804F3A
:105A400008BF13F0804F03D100F01AF8FFF756FF9C
:105A5000F0BCBDE8008C2DE9804C70B49A469346AA
:105A600091E8380007C810F0804F08BF13F0804F4E
:105A700003D100F005F8FFF7FFFEF0BCBDE8008C95
:105A800020F07F4723F07F4C80EA030000F00040C5
:105A900007EB0C03A3F57C53A3F1FE0392F0000F78
:105AA00000F0B38095F0000F00F077802DE90149F8
:105AB0004FEA114021EA00484FEA144624EA06471B
:105AC00000FB06FC08FB06F607FB08F818EB064887
:105AD0004CEB164C00FB07F718EB07484CEB174054
